:100000000C9411010C9439010C9439010C943901B0
:100010000C9439010C9439010C9439010C94390178
:100020000C9439010C9439010C9439010C94390168
:100030000C9439010C9439010C9439010C94390158
:100040000C94060B0C9439010C94760B0C94500B09
:100050000C9439010C9439010C9439010C94390138
:100060000C9439010C94390105A84CCDB2D44EB989
:100070003836A9020C50B9918688083CA6AAAA2A4B
:10008000BE000000803F4E414E494E495459494EF2
:1000900046CDCCCC3D0AD7233C17B7D13877CC2BF3
:1000A000329595E6241FB14F0A000020410000C898
:1000B0004200401C4620BCBE4CCA1B0E5AAEC59D19
:1000C00074434647200050524F4E544F3A206272BC
:1000D000696467652043414E203235306B6270732E
:1000E00020617469766F2028435331303D6C656917
:1000F00074757261204353393D73616964612900ED
:1001000046414C4841004F4B0046414C4841004F4E
:100110004B002053414944413D004552524F204D30
:100120004350323531353A204C4549545552413DC2
:1001300000000000002300260029005420000000D9
:100140000000250028002B0000000008000201002C
:100150000003040700000000000000000000000091
:10016000240027002A000102040810204080010218
:1001700004081020010204081020040404040404EC
:100180000404020202020202030303030303526592
:100190007475726E696E6720746F2050726576692F
:1001A0006F7573204D6F6465204661696C7572656B
:1001B0002E2E2E0053657474696E6720426175643B
:1001C00072617465205375636365737366756C2122
:1001D00000456E746572696E6720436F6E6669676D
:1001E00075726174696F6E204D6F6465205375631D
:1001F0006365737366756C2100456E746572696E14
:100200006720436F6E66696775726174696F6E20EF
:100210004D6F6465204661696C7572652E2E2E00E7
:10022000A80B11241FBECFEFD8E0DEBFCDBF22E068
:10023000AAE4B1E001C01D92A937B207E1F711E0CD
:10024000A0E0B1E0E8EBF9E202C005900D92AA341B
:10025000B107D9F711E0C1E1D1E004C02197FE0157
:100260000E940E13C031D107C9F70E94F90B0C94FC
:10027000DA140C9400008CBD9DBD0895833081F08C
:1002800028F4813099F08230A9F008958730A9F0E0
:100290008830C9F08430B1F4809180008F7D03C034
:1002A000809180008F7780938000089584B58F7748
:1002B00084BD089584B58F7DFBCF8091B0008F778A
:1002C0008093B00008958091B0008F7DF9CF1F9387
:1002D000CF93DF93282F30E0F901E85BFE4F849144
:1002E000F901EA59FE4FD491F901E658FE4FC49145
:1002F000CC23A9F0162F81110E943E01EC2FF0E0D3
:10030000EE0FFF1FE25CFE4FA591B4918FB7F894FA
:10031000EC91111108C0D095DE23DC938FBFDF91E3
:10032000CF911F910895DE2BF8CFCF93DF9390E00C
:10033000FC01EA59FE4F249186589E4FFC0184919E
:100340008823D1F090E0880F991FFC01E45AFE4FFA
:10035000A591B491FC01E25CFE4FC591D49162304D
:1003600071F49FB7F8943C91822F809583238C93EE
:10037000E8812E2B28839FBFDF91CF9108958FB7FF
:10038000F894EC912E2B2C938FBFF6CFCF93CFB751
:10039000F8948091B001811127C0E4E8F1E08491E4
:1003A000E0E7F1E09491E82FF0E0EE0FFF1FE45A50
:1003B000FE4FA591B491EC91E92321F461E08AE02C
:1003C0000E94670161E08AE00E9495018CB580611E
:1003D0008CBD8CB580648CBD61E08DE00E94950180
:1003E00061E08BE00E9495018091B0018F5F809366
:1003F000B001CFBFCF9108953FB7F8948091AC0181
:100400009091AD01A091AE01B091AF0126B5A89B2E
:1004100005C02F3F19F00196A11DB11D3FBFBA2F96
:10042000A92F982F8827BC01CD01620F711D811D56
:10043000911D42E0660F771F881F991F4A95D1F7DB
:1004400008958F929F92AF92BF92CF92DF92EF92D8
:10045000FF924B015C010E94FC016B017C010E9438
:10046000FC016C197D098E099F09683E7340810566
:100470009105A8F321E0821A9108A108B10888EE3D
:10048000C80E83E0D81EE11CF11C81149104A10464
:10049000B10429F7FF90EF90DF90CF90BF90AF901D
:1004A0009F908F9008952FB7F8946091A801709154
:1004B000A9018091AA019091AB012FBF0895AF923D
:1004C000BF92CF92DF92EF92FF920F931F93CF9341
:1004D000DF936C017B018B01040F151FEB015E01A3
:1004E000AE18BF08C017D10759F06991D601ED9138
:1004F000FC910190F081E02DC6010995892B79F7D7
:10050000C501DF91CF911F910F91FF90EF90DF9088
:10051000CF90BF90AF900895FC01538D448D252F4F
:1005200030E0842F90E0821B930B541710F0CF968D
:10053000089501970895FC01918D828D981761F0BF
:10054000A28DAE0FBF2FB11D5D968C91928D9F5FD6
:100550009F73928F90E008958FEF9FEF0895FC01B5
:10056000918D828D981731F0828DE80FF11D858D68
:1005700090E008958FEF9FEF0895FC01918D228DFB
:10058000892F90E0805C9F4F821B91098F73992780
:10059000089581EB91E00E94BD0221E0892B09F4CE
:1005A00020E0822F089580E090E0892B29F00E94BE
:1005B000C90281110C9400000895FC01A48DA80FBC
:1005C000B92FB11DA35ABF4F2C91848D90E0019695
:1005D0008F739927848FA689B7892C93A089B189B5
:1005E0008C91837080648C93938D848D981306C056
:1005F0000288F389E02D80818F7D80830895EF92BA
:10060000FF920F931F93CF93DF93EC0181E0888FCC
:100610009B8D8C8D98131AC0E889F989808185FF9C
:1006200015C09FB7F894EE89FF896083E889F9893E
:1006300080818370806480839FBF81E090E0DF9140
:10064000CF911F910F91FF90EF900895F62E0B8D93
:1006500010E00F5F1F4F0F731127E02E8C8D8E114E
:100660000CC00FB607FCFACFE889F989808185FFB5
:10067000F5CFCE010E94DD02F1CFEB8DEC0FFD2F07
:10068000F11DE35AFF4FF0829FB7F8940B8FEA8970
:10069000FB8980818062CFCF682F81EB91E00C9441
:1006A000FF020F931F93CF93DF938C01D0E0C0E044
:1006B000F801EC0FFD1F6491662341F081EB91E09E
:1006C0000E94FF02892B11F02196F2CFCE01DF911B
:1006D000CF911F910F910895CF93DF93EC01888DF7
:1006E0008823B9F0AA89BB89E889F9898C9185FDAD
:1006F00003C0808186FD0DC00FB607FCF7CF8C913B
:1007000085FFF2CF808185FFEDCFCE010E94DD0213
:10071000E9CFDF91CF91089508958EBD00000DB40B
:1007200007FEFDCF8EB508951F93CF93DF93EC01A5
:1007300080E591E00E943B0160E08A890E946701A8
:1007400080EA0E948D0380E00E948D03182F61E0F3
:100750008A890E946701812FDF91CF911F910895AF
:10076000FF920F931F93CF93DF93EC01F62E042F8C
:10077000122F80E591E00E943B0160E08A890E948F
:10078000670185E00E948D038F2D0E948D03802FCD
:100790000E948D03812F0E948D0361E08A89DF9181
:1007A000CF911F910F91FF900C946701DF92EF9210
:1007B000FF920F931F93CF93DF937C01C62FD42E0C
:1007C000152F022F80E591E00E943B0160E0F701C8
:1007D00082890E94670182E00E948D038C2F0E9413
:1007E0008D03CD2DD12F0C0F1D2F111DC017D1073B
:1007F00021F089910E948D03F9CF61E0F701828990
:10080000DF91CF911F910F91FF90EF90DF900C94AB
:100810006701CF93DF9300D000D0CDB7DEB71C8245
:100820001B82413081F428E02A83198224E0AE0142
:100830004F5F5F4F0E94D6030F900F900F900F9065
:10084000DF91CF9108951A82F0CF0F931F93CF932A
:10085000DF93EC01062F142F80E591E00E943B010D
:1008600060E08A890E94670182E00E948D03802FE8
:100870000E948D03812F0E948D0361E08A89DF91A0
:10088000CF911F910F910C946701DF92EF92FF922D
:100890000F931F93CF93DF937C01C62FD42E152F78
:1008A000022F80E591E00E943B0160E0F701828920
:1008B0000E94670183E00E948D038C2F0E948D03AC
:1008C000CD2DD12F0C0F1D2F111DC017D10729F0D1
:1008D00080E00E948D038993F8CF61E0F70182895F
:1008E000DF91CF911F910F91FF90EF90DF900C94CB
:1008F00067011F93CF93DF93EC01162F80E591E002
:100900000E943B0160E08A890E94670183E00E94A7
:100910008D03812F0E948D0380E00E948D03182F8C
:1009200061E08A890E946701812FDF91CF911F9139
:100930000895EF92FF920F931F93CF93DF9300D010
:1009400000D0CDB7DEB78C01F62EFC0110821182EB
:1009500012821382148224E0AE014F5F5F4F0E9427
:1009600045042A818981F8E08F9FC0011124422F1C
:1009700050E065E0559547956A95E1F7840F951F1E
:10098000092E000CAA0BBB0BF80181839283A38371
:10099000B48323FF24C032E0880F991FAA1FBB1F16
:1009A0003A95D1F72370820F911DA11DB11DBA2F69
:1009B000A92F982F88272B81820F911DA11DB11D72
:1009C000BA2FA92F982F88272C81820F911DA11D46
:1009D000B11D81839283A383B48381E080836FEF11
:1009E0006F0DC8010E947904E82E64E06F0DC80104
:1009F0000E947904F8018583E3FE19C091E096878F
:100A0000282F2F70F8012583A8014A5F5F4F65E00A
:100A10006F0DC8010E9445040F900F900F900F902A
:100A2000DF91CF911F910F91FF90EF90089516865F
:100A3000E7CF0F931F93CF93DF93EC01162F0E9404
:100A40005302062F212F40EE6FE0CE010E94B0032B
:100A50006EE0CE010E947904807E181759F00E9442
:100A60005302601B693C70F381E0DF91CF911F91CD
:100A70000F91089580E0F9CF0F931F93CF93DF93E9
:100A8000EC01162F6EE00E947904807E803221F501
:100A9000103211F16BE2CE010E947904082F00742C
:100AA00086FD06C020E440E46BE2CE010E94B00364
:100AB00020E440E46CE2CE010E94B00360E6CE0187
:100AC0000E941905811116C0011106C020E040E402
:100AD0006BE2CE010E94B00320E040E46CE2CE0164
:100AE0000E94B003612FCE01DF91CF911F910F9132
:100AF0000C94190581E0DF91CF911F910F9108951A
:100B0000FC0101900020E9F73197AF01481B590B18
:100B1000BC0181EB91E00C945F028F929F92AF92A7
:100B2000BF920F931F93CF93DF93CDB7DEB7A197FB
:100B30000FB6F894DEBF0FBECDBF19A2423008F445
:100B40004AE08E010F5D1F4F842E912CB12CA12CF9
:100B5000A50194010E94EC12E62FB901CA01EA3006
:100B6000F4F4E05DD801EE938D01232B242B252B8B
:100B700079F790E080E0109719F0CD010E94800590
:100B8000A1960FB6F894DEBF0FBECDBFDF91CF9117
:100B90001F910F91BF90AF909F908F900895E95C47
:100BA000E1CFCF93DF930E945103EC0189E191E003
:100BB0000E9480058C0F9D1FDF91CF9108954F9269
:100BC0005F926F927F928F929F92AF92BF92CF92DD
:100BD000DF92EF92FF920F931F93CF936B017C01F3
:100BE000742EAC019B010E943614882399F08CE18D
:100BF00091E0CF911F910F91FF90EF90DF90CF90F8
:100C0000BF90AF909F908F907F906F905F904F902C
:100C10000C94800546015701E894B7F82FEF3FEF99
:100C20004FE75FE7C501B4010E94361481110DC082
:100C30002FEF3FEF4FE75FE7C501B4010E945E1160
:100C400018161CF480E291E0D4CF2FEF3FEF4FE76E
:100C50005FE4C701B6010E94291418161CF484E24F
:100C600091E0C7CF2FEF3FEF4FE75FECC701B60131
:100C70000E945E1187FDF3CF20E030E0A901C7019B
:100C8000B6010E945E1110E000E087FF08C08DE20F
:100C90000E944C038C01F7FAF094F7F8F094C0E04E
:100CA00060E070E080E09FE37C1641F020E030E0FF
:100CB00040E251E40E948113CF5FF6CFA701960175
:100CC0000E9415132B013C010E94FA134B015C0199
:100CD0004AE00E948D057C01E00EF11ECC23B1F1AB
:100CE000C501B4010E9463119B01AC01C301B201B3
:100CF0000E9414134B015C018EE20E944C03E80E2B
:100D0000F91EC15018F120E030E040E251E4C50185
:100D1000B4010E94C4112B013C010E94FA134B0143
:100D2000B12CA12C4AE0C501B4010E948D05E80E4A
:100D3000F91EC501B4010E9463119B01AC01C301FE
:100D4000B2010E9414134B015C01DBCFC701CF91AC
:100D50001F910F91FF90EF90DF90CF90BF90AF90D9
:100D60009F908F907F906F905F904F9008951F930A
:100D7000CF93DF93EC0180E591E00E943B0160E0BE
:100D80008A890E94670180EC0E948D0361E08A8954
:100D90000E94670165E070E080E090E00E9421021F
:100DA00080E48B8B60E8CE010E943C05182F89EF10
:100DB00091E0111182C081ED91E00E94D10540E8DF
:100DC0006AE2CE010E94250445EE69E2CE010E944E
:100DD000250443E868E2CE010E94250484EB91E0FB
:100DE0000E94D10541E060E2CE010E94090441E089
:100DF00064E2CE010E94090441E060E0CE010E945D
:100E0000090440E064E0CE010E94090441E068E08A
:100E1000CE010E94090440E060E1CE010E94090475
:100E200041E064E1CE010E94090440E068E1CE01A6
:100E30000E94090410E340E0612FCE010E942504C6
:100E400060E1610F40E0CE010E94250460E2610F85
:100E500040E0CE010E9425041F5F1E3361F740E091
:100E600060E6CE010E94250440E060E7CE010E94CA
:100E7000250443E06BE2CE010E9425044CE36CE0C4
:100E8000CE010E94250440E06DE0CE010E942504C1
:100E900024E644E660E6CE010E94B00320E640E688
:100EA00060E7CE010E94B0036B89CE010E943C0531
:100EB000182F882321F08EE891E00E94D105812F20
:100EC000DF91CF911F910895CF93DF9381EC90E054
:100ED0000E945103CEE4D1E06C817D818E819F819F
:100EE00043E00E94DF058CE20E944C03688579850F
:100EF0008A859B8543E00E94DF058CE20E944C03BB
:100F00006C857D858E859F8543E00E94DF058CE2A0
:100F10000E944C03688979898A899B894AE00E94EA
:100F20008D058CE20E944C036C8970E090E080E0BB
:100F30004AE00E948D058CE20E944C036D8970E0AE
:100F400090E080E04AE00E948D0589E191E0DF9128
:100F5000CF910C948005FF920F931F93CF93DF9353
:100F60000EE411E0D0E0C0E0F801F1908F01CE0175
:100F70000E948512F81621F06F2DCE010E948D126D
:100F80002196C631D10581F7DF91CF911F910F9145
:100F9000FF9008952F923F924F925F926F927F92AF
:100FA0008F929F92AF92BF92CF92DF92EF92FF9279
:100FB0000F931F93CF93DF93CDB7DEB7AC970FB6E8
:100FC000F894DEBF0FBECDBF2C013B014BA39B01AC
:100FD000225F3F4F39A728A7809104019091050116
:100FE000A09106018AA79BA7ACA7DE011C96BE872D
:100FF000AD87C2010E949403837009F4EEC2C2015E
:101000000E94940380FF32C061E6C2010E949904ED
:1010100020E041E06CE2C2010E94B003D2011196CF
:101020002D913D914D915C9114972E8F3F8F48A348
:1010300059A31596BC91BD8BF201F081FAA3D201A0
:1010400016969E012F5F3F4F388B2F87F9014D89F0
:10105000242F30E0CF014F855889841B950B8217D0
:1010600093070CF0A3C18D918193F4CF81FFB5C29A
:1010700061E7C2010E94990420E042E0CBCFC12C7D
:10108000D12C760139C2C12CD12C70E8E72E7FE338
:10109000F72E32C220E030E0A901C701B6010E945C
:1010A000291418160CF434C220919E0130919F012E
:1010B0004091A0015091A101632D722D812F902F9D
:1010C0000E94C4114B015C01905820E030E048ECD4
:1010D00052E40E94811320E030E040E85FE30E9488
:1010E00015136B017C01AE89BF89BD0190E080E0E2
:1010F0000E94631120E030E04AE755E40E94141397
:101100009B01AC01C701B6010E94C41120E030E090
:101110004AE755E40E9415136B017C0120E030E0A2
:10112000A9010E945E1187FDB1C020E03FEF4FE7AB
:1011300057E4C701B6010E94291418160CF4AAC07E
:1011400020E030E040E05FE3C701B6010E941513E4
:101150000E94FA138B0120E030E048EC52E4C50114
:10116000B4010E94811320E030E040E85FE30E9478
:1011700015132A8D3B8D4C8D5D8D0E94C41120E08E
:1011800038E947EB56E40E9415136B017C0120E01F
:1011900030E0A9010E945E1187FD84C020E03FEF8E
:1011A0004FE757E4C701B6010E94291418160CF442
:1011B0007DC020E030E040E05FE3C701B6010E945F
:1011C00015130E94FA1309831A836B837C83EE89BB
:1011D000FF89F0939D01E0939C0100939A01109385
:1011E0009B01288D398D309399012093980160934C
:1011F00096017093970181E08093A6018E8D9F8D5B
:10120000A8A1B9A1F30181839283A383B483168635
:101210002AA120833D89358336963E2ECF2EAF8579
:10122000B8898D91B88BAF87819328A539A52E17E2
:101230003F07A9F70E94FC014B015C018AA59BA511
:10124000ACA589879A87AB877E0199E0E90EF11CEE
:10125000DE2C0F2DD7011D917D01612FC3010E944E
:10126000790483FD2BC01F5FF12C0E94FC01DC017F
:10127000CB0188199909AA09BB09F2E0FF1227C01E
:10128000843C9940A105B105C8F2B3CEC12CD12C44
:10129000760156CFC12CDD24DA946FE7E62E67E4A1
:1012A000F62E4ECFC12CD12C760183CFC12CDD245C
:1012B000DA945FE7E52E57E4F52E7BCFED85FE85CA
:1012C000EE16FF0639F610E042E0F42ECECF843C55
:1012D0009940A105B10508F08CCED30115962C914B
:1012E000432D5C2D65E0610FC3010E94D603F3011D
:1012F0008685813019F4858180648583D3011596B4
:101300004C9164E0610FC3010E942504F3018181C7
:101310009281A381B48120812130D1F58C879B8774
:10132000CD01AA27BB27282F220F220F220F207EB4
:10133000382F33703860232B2A8735E096958795B0
:101340003A95E1F7898724E04D2D502F612FC30195
:101350000E94D603115028E048E0612FC3010E948B
:10136000B0030E94FC016B017C01612FC3010E944C
:101370007904082F0E94FC016C197D098E099F09D0
:1013800003FF37CE643C79408105910570F331CE7F
:101390009C0193E0369527959A95E1F729878295E8
:1013A000880F807E8A871C861B86CDCF2BA12223A7
:1013B00009F424CF5AA1552309F420CF8E8D9F8D97
:1013C000A8A1B9A182359F40A04FB84109F016CF1E
:1013D000FD89F43008F412CF29813A813F8B2E8B9E
:1013E0004B815C81598F488FBA0190E080E00E9468
:1013F000631120E038E947EB56E40E9414136A8F2A
:101400007B8F8C8F9D8F20E030E048E151E40E947B
:10141000C41120E038E840E956E40E9481134B01F2
:101420005C018092000190920101A0920201B092B1
:10143000030130905201209053011091540100910A
:101440005501C0905A01D0905B01E0905C01F09092
:101450005D0180916301882309F41CCE20E030E017
:10146000A901C701B6010E94291418160CF012CE6A
:101470008091560190915701A0915801B091590166
:10148000898B9A8BAB8BBC8BA7019601BC01CD01DC
:101490000E9429141816E4F5A501940169897A8936
:1014A0008B899C890E9414136CA37DA38EA39FA398
:1014B000A701960169897A898B899C890E941413F6
:1014C0009B01AC016CA17DA18EA19FA10E94811303
:1014D0006B017C0120E030E0A9010E945E1187FDD4
:1014E000CECD20E030E040E85FE3C701B6010E94C6
:1014F000291418160CF4C7CDA7019601632D722D7F
:10150000812F902F0E94C411362E272E182F092FBD
:101510002AE037ED43E25CE3C501B4010E942914DF
:1015200018160CF0C1CD0E94530224EC39E040E0C3
:1015300050E00E94EC120E94631120E030E44CE184
:1015400055E40E9481132BED3FE049EC50E40E94EA
:10155000C4110E942E1420E030E040E05FE30E94BE
:10156000C41120E030E040E05FE30E9415132FE853
:1015700032EC45E75DE30E94C41120E030E040E832
:101580005FE30E94151320915A0130915B01409155
:101590005C0150915D010E94C411A50194010E945B
:1015A000811320E030E040E85FE30E94141320E064
:1015B00030E048EC52E40E94C4116B017C01232D01
:1015C000322D412F502F0E94291418160CF06CCD8B
:1015D0003C2C2D2C1E2D0F2D67CDAC960FB6F894FC
:1015E000DEBF0FBECDBFDF91CF911F910F91FF9056
:1015F000EF90DF90CF90BF90AF909F908F907F90B3
:101600006F905F904F903F902F9008951F920F9290
:101610000FB60F9211242F933F938F939F93AF9305
:10162000BF938091A8019091A901A091AA01B091C6
:10163000AB013091A70123E0230F2D3758F5019618
:10164000A11DB11D2093A7018093A8019093A9012A
:10165000A093AA01B093AB018091AC019091AD0130
:10166000A091AE01B091AF010196A11DB11D809373
:10167000AC019093AD01A093AE01B093AF01BF91C7
:10168000AF919F918F913F912F910F900FBE0F902F
:101690001F90189526E8230F0296A11DB11DD2CFE9
:1016A0001F920F920FB60F9211242F933F934F93D7
:1016B0005F936F937F938F939F93AF93BF93EF93BA
:1016C000FF9381EB91E00E94DD02FF91EF91BF91CA
:1016D000AF919F918F917F916F915F914F913F91CA
:1016E0002F910F900FBE0F901F9018951F920F9281
:1016F0000FB60F9211242F938F939F93EF93FF9325
:10170000E091C101F091C2018081E091C701F091A7
:10171000C80182FD1BC090818091CA018F5F8F73C9
:101720002091CB01821741F0E091CA01F0E0EF5423
:10173000FE4F958F8093CA01FF91EF919F918F91FA
:101740002F910F900FBE0F901F9018958081F4CFAE
:101750000F931F93CF93DF93E1EBF1E0138212829B
:1017600088EE93E0A0E0B0E084839583A683B783FE
:101770008BE091E09183808385EC90E0958784876E
:1017800084EC90E09787868780EC90E0918B808B4B
:1017900081EC90E0938B828B82EC90E0958B848B34
:1017A00086EC90E0978B868B118E128E138E148EA2
:1017B000C3E6D2E08AE08A8B61E00E94670161E0C3
:1017C0008A890E9495010EE412E0198B088BCFE400
:1017D000D2E089E08A8B61E00E94670161E08A893A
:1017E0000E949501198B088BDF91CF911F910F916A
:1017F0000895CF93DF9300D000D01F92CDB7DEB70E
:10180000789484B5826084BD84B5816084BD85B5DB
:10181000826085BD85B5816085BD80916E008160E7
:1018200080936E001092810080918100826080938D
:10183000810080918100816080938100809180008F
:101840008160809380008091B10084608093B100BA
:101850008091B00081608093B00080917A008460B4
:1018600080937A0080917A00826080937A008091E0
:101870007A00816080937A0080917A0080688093FA
:101880007A001092C100E091C101F091C20182E0A2
:101890008083E091BD01F091BE011082E091BF0113
:1018A000F091C00180E180831092C901E091C501EF
:1018B000F091C60186E08083E091C301F091C401FC
:1018C000808180618083E091C301F091C4018081B7
:1018D00088608083E091C301F091C40180818068B9
:1018E0008083E091C301F091C40180818F7D80836A
:1018F00062E083E00E9495010EE411E01A821982F1
:1019000089819A810E948512D8018D938D01E98188
:10191000FA813196FA83E983769791F780914E01A7
:1019200090914F01A0915001B091510186339E4496
:10193000A144B34409F43FC086E39EE4A1E4B3E4C8
:1019400080934E0190934F01A0935001B0935101A9
:1019500010925201109253011092540110925501AD
:1019600080E090E0A0EAB0E48093560190935701A4
:10197000A0935801B093590180E090E0A0E4B0E456
:1019800080935A0190935B01A0935C01B0935D0139
:1019900080ED97E0A0E0B0E080935E0190935F015E
:1019A000A0936001B093610181E080936201109285
:1019B00063010E94AB070E94C60183E692E00E9489
:1019C000B70621E02D8381111D820E94C6018FE49C
:1019D00092E00E94B70631E03983811119824D816E
:1019E000442319F05981511137C08AE191E00E94D6
:1019F00051038D81882351F18FE091E00E945103C2
:101A000082E191E00E9451039981992311F186E0CE
:101A100091E00E94D10568EE73E080E090E00E94C2
:101A200021020E94C60183E692E00E94B7068983E4
:101A30000E94C6018FE492E00E94B706A1E0AD8348
:101A4000B981B1111D82E1E0E983C7CF89E091E05E
:101A5000D5CF80E091E0DDCF1092760260E083E6A2
:101A600092E00E943C051092620260E08FE492E0F6
:101A70000E943C050E94530260934A0170934B01FF
:101A800080934C0190934D0186EC90E00E94D1052B
:101A90000E94640729E6222E21E0322E0DE711E094
:101AA0000E9453024B015C0120914A0130914B018D
:101AB00040914C0150914D0129833A834B835C83C3
:101AC00080924A0190924B01A0924C01B0924D013C
:101AD000EBE4F1E08491F101F490F801E490EE2060
:101AE00031F181110E943E01EE2DF0E0EE0FFF1F5B
:101AF000EF5CFE4FA591B4918C91F822C1F0FF24C8
:101B0000F394209100013091010140910201509124
:101B10000301609156017091570180915801909195
:101B200059010E942914181644F0F12C06C0FF2414
:101B3000F394809162018111F8CFF0929501FF201A
:101B4000E1F0C12CD12C80E8E82E8FE3F82E4090F4
:101B50005E0150905F0160906001709061014114DE
:101B600051046104710469F4C0929E01D0929F01F6
:101B7000E092A001F092A10147C0C12CD12C7601C6
:101B8000E6CFC501B40129813A814B815C81621B9A
:101B9000730B840B950B0E9463114B015C01C30115
:101BA000B2010E9463119B01AC01C501B4010E9406
:101BB00081132B013C0180909E0190909F01A09089
:101BC000A001B090A101A5019401C701B6010E9436
:101BD0002914A501940118160CF049C0C301B201E3
:101BE0000E9415134B015C01AC019B01C701B601BA
:101BF0000E945E1187FDB8CF80929E0190929F0156
:101C0000A092A001B092A10141E06FE472E083E6EE
:101C100092E00E94CA0740E063E672E08FE492E03F
:101C20000E94CA0781EB91E00E94BD02892B09F452
:101C3000CBC081EB91E00E949B02E09194018A303D
:101C400019F08D3009F0B4C0EE2361F3F0E0EC59E7
:101C5000FE4F108268E271E084E691E00E94C314B6
:101C6000892BE9F40E94640710929401DBCFC7012D
:101C7000B6010E945E1187FFC7CFA3019201C50183
:101C8000B4010E9414134B015C01AC019B01C7011C
:101C9000B6010E94291418160CF466CFADCF44E0AB
:101CA00050E06CE271E084E691E00E94CC14892B54
:101CB00079F488E691E00E94870F60935201709357
:101CC000530180935401909355010E94AB07CACFF2
:101CD00044E050E061E371E084E691E00E94CC14BE
:101CE000892B69F488E691E00E94870F6093560182
:101CF000709357018093580190935901E6CF44E0C7
:101D000050E066E371E084E691E00E94CC14892BF8
:101D100069F488E691E00E94870F60935A017093FE
:101D20005B0180935C0190935D01CFCF44E050E074
:101D30006BE371E084E691E00E94CC14892B69F496
:101D400088E691E00E94A90F60935E0170935F01A5
:101D50008093600190936101B8CF43E050E060E46C
:101D600071E084E691E00E94CC14892B59F487E657
:101D700091E00E948B0F21E0892B09F420E0209351
:101D80006201A3CF44E050E064E471E084E691E0B6
:101D90000E94CC14892B09F067CF88E691E00E945D
:101DA0008B0F21E0892B09F420E0209363018DCF74
:101DB000EF3208F059CF91E09E0F90939401F0E03C
:101DC000EC59FE4F80832ECF0E9453022091A60132
:101DD000222309F48FC0C090A201D090A301E0900B
:101DE000A401F090A5019B01AC012C193D094E09FD
:101DF0005F0969017A0134E6C316D104E104F104F4
:101E000008F478C06093A2017093A3018093A401A9
:101E10009093A50120E030E04AE754E460919E01F0
:101E200070919F018091A0019091A1010E94C41125
:101E300020E030E040E05FE30E9415130E94F313BE
:101E40006B018BE391E00E94510360919C017091C2
:101E50009D0190E080E04AE00E948D0580E20E94B2
:101E60004C0360919A0170919B0190E080E04AE000
:101E70000E948D0580E20E944C0360919801709150
:101E8000990190E080E04AE00E948D0580E20E9486
:101E90004C03609196017091970190E080E04AE0D8
:101EA0000E948D0580E20E944C036091950170E0D4
:101EB00090E080E04AE00E948D0580E20E944C03A1
:101EC0000D2C000CEE08FF084AE0C701B601F7FE32
:101ED0000BC08DE20E944C0366277727CB016C195B
:101EE0007D098E099F094AE00E948D0589E191E0F4
:101EF0000E94800540E050E0452B09F4D1CD0E94BE
:101F0000C902882309F4CCCD0E940000C9CD662700
:101F100077270C94ED0FFC0188279927E8942191ED
:101F20002032E9F3293010F02E30C8F32B3241F083
:101F30002D3239F4689404C00E94E50F820F911D80
:101F4000219120532A30C0F31EF4909581959F4F24
:101F500008951F93FC0199278827BC01E8941191EB
:101F60001032E9F3193010F01E30C8F31B3251F073
:101F70001D3249F4689406C00E94D00F610F711D94
:101F8000811D911D119110531A30B0F33EF49095BC
:101F90008095709561957F4F8F4F9F4F1F9108954A
:101FA000592F482F372F262F660F771F881F991F0D
:101FB000660F771F881F991F620F731F841F951F5D
:101FC000660F771F881F991F08957AE0979F902DBD
:101FD000879F802D910D11240895B0E0A0E0E3EFDC
:101FE000FFE00C94AC125C017B016115710519F0E6
:101FF000DB018D939C9385010F5F1F4FF501D0810D
:102000008D2F90E00E943D116C01892BB9F5DD32D6
:10201000B9F50F5F1F4FD5011196DC91C1E0580152
:10202000F1E0AF1AB10843E050E06EE870E0C5019E
:102030000E944611892B69F5680182E0C80ED11C07
:1020400045E050E069E870E0C6010E944611892B26
:1020500021F4680197E0C90ED11CE114F10419F0D4
:10206000D701CD92DC9260E070E080E89FEFC11173
:10207000FFC060E070E080E89FE7FAC05801BBCF86
:10208000DB3229F485010E5F1F4FF501D181C0E0DD
:10209000C6CF43E050E066E870E0C5010E944611FB
:1020A000892BE9F0F80110E000E020E030E0A90120
:1020B0005F01B0ED8B2E8D0E89E08815C8F19C2E46
:1020C000689491F88C2F8870C2FF16C0811102C0ED
:1020D0000F5F1F4F3196D501DC91C92DE9CFE11477
:1020E000F10429F00E5F1F4FF7011183008360E0B8
:1020F00070E080EC9FE7BCC0882311F0015011090B
:10210000A5E0B0E00E949B129B01AC01220F331F9F
:10211000441F551F280D311D411D511D283999E9B6
:102120003907490799E15907A8F2C6609C2ED2CF1A
:10213000AEEF8A1206C0C3FD3CC09C2E689493F893
:10214000C9CFDF7DD534A9F580818D3239F4C061E6
:10215000DF011296818162E070E006C0DF018B3200
:10216000C1F3119661E070E080535D01A61AB70AD1
:102170008A30F8F4E0E8CE16ECE0DE065CF4B60156
:10218000660F771F660F771FC60ED71ECC0CDD1C9F
:10219000C80ED11C5D01FFEFAF1ABF0A8C918053AE
:1021A0008A30A8F1C4FF03C0D194C194D1080C0DAA
:1021B0001D1DC1FF09C0E114F10431F081E0A81A2E
:1021C000B108D701AD92BC92CA01B9010E94631156
:1021D000C370C33009F490584B015C0120E030E03B
:1021E000A9010E945E11882309F440C0CDEBD0E024
:1021F00017FF05C0119501951109C5EAD0E06E01E0
:10220000B8E1CB1AD10880E2E82EF12C0FC0D5013D
:10221000B1CFFE0125913591459154910E191F09B9
:10222000C501B4010E94C4114B015C01D501C40178
:102230000E151F0574F72497F594E794CC16DD0668
:10224000A9F78A2F880F8B2F881F8F3F49F020E036
:1022500030E0A901C501B4010E945E11811106C0E0
:1022600082E290E09093780280937702C501B401F6
:10227000CDB7DEB7ECE00C94C81291110C9431127A
:10228000803219F089508550C8F70895FB01DC01B0
:102290004150504088F08D9181341CF08B350CF406
:1022A000805E659161341CF06B350CF4605E861BBA
:1022B000611171F3990B0895881BFCCF0E94A01146
:1022C00008F481E00895E89409C097FB3EF49095E6
:1022D0008095709561957F4F8F4F9F4F9923A9F0FF
:1022E000F92F96E9BB279395F6958795779567958E
:1022F000B795F111F8CFFAF4BB0F11F460FF1BC0D2
:102300006F5F7F4F8F4F9F4F16C0882311F096E964
:1023100011C0772321F09EE8872F762F05C0662312
:1023200071F096E8862F70E060E02AF09A95660FCB
:10233000771F881FDAF7880F9695879597F9089584
:10234000990F0008550FAA0BE0E8FEEF16161706C6
:10235000E807F907C0F012161306E407F50798F02E
:10236000621B730B840B950B39F40A2661F0232B47
:10237000242B252B21F408950A2609F4A140A695C3
:102380008FEF811D811D08950E94D7110C944B126F
:102390000E943D1238F00E94441220F0952311F063
:1023A0000C9434120C943A1211240C947F120E9453
:1023B0005C1270F3959FC1F3950F50E0551F629F1B
:1023C000F001729FBB27F00DB11D639FAA27F00D8E
:1023D000B11DAA1F649F6627B00DA11D661F829FB5
:1023E0002227B00DA11D621F739FB00DA11D621F9A
:1023F000839FA00D611D221F749F3327A00D611DB7
:10240000231F849F600D211D822F762F6A2F112498
:102410009F5750409AF0F1F088234AF0EE0FFF1FCB
:10242000BB1F661F771F881F91505040A9F79E3F22
:10243000510580F00C9434120C947F125F3FE4F34A
:10244000983ED4F3869577956795B795F795E79578
:102450009F5FC1F7FE2B880F911D9695879597F981
:10246000089599278827089597F99F6780E870E075
:1024700060E008959FEF80EC089500240A941616FA
:10248000170618060906089500240A941216130662
:10249000140605060895092E0394000C11F48823F0
:1024A00052F0BB0F40F4BF2B11F460FF04C06F5F0C
:1024B0007F4F8F4F9F4F089557FD9058440F551FE2
:1024C00059F05F3F71F04795880F97FB991F61F0B6
:1024D0009F3F79F087950895121613061406551F2D
:1024E000F2CF4695F1DF08C0161617061806991F99
:1024F000F1CF86957105610508940895E894BB278E
:1025000066277727CB0197F90895F999FECF92BDF9
:1025100081BDF89A992780B50895262FF999FECFA5
:102520001FBA92BD81BD20BD0FB6F894FA9AF99AF0
:102530000FBE019608950E94DD12A59F900DB49FD5
:10254000900DA49F800D911D112408952F923F920C
:102550004F925F926F927F928F929F92AF92BF92B3
:10256000CF92DF92EF92FF920F931F93CF93DF935F
:10257000CDB7DEB7CA1BDB0B0FB6F894DEBF0FBEBC
:10258000CDBF09942A88398848885F846E847D8409
:102590008C849B84AA84B984C884DF80EE80FD800B
:1025A0000C811B81AA81B981CE0FD11D0FB6F89481
:1025B000DEBF0FBECDBFED010895A29FB001B39F56
:1025C000C001A39F700D811D1124911DB29F700D3C
:1025D000811D1124911D0895A1E21A2EAA1BBB1B77
:1025E000FD010DC0AA1FBB1FEE1FFF1FA217B307DF
:1025F000E407F50720F0A21BB30BE40BF50B661FF5
:10260000771F881F991F1A9469F7609570958095B8
:1026100090959B01AC01BD01CF010895EE0FFF1F06
:102620000590F491E02D09945058BB27AA270E94E9
:102630002C130C944B120E943D1238F00E9444124D
:1026400020F039F49F3F19F426F40C943A120EF45A
:10265000E095E7FB0C943412E92F0E945C1258F3CA
:10266000BA17620773078407950720F079F4A6F577
:102670000C947E120EF4E0950B2EBA2FA02D0B01B8
:10268000B90190010C01CA01A0011124FF27591BB7
:1026900099F0593F50F4503E68F11A16F040A22FBD
:1026A000232F342F4427585FF3CF4695379527952E
:1026B000A795F0405395C9F77EF41F16BA0B620B2D
:1026C000730B840BBAF09150A1F0FF0FBB1F661F74
:1026D000771F881FC2F70EC0BA0F621F731F841FB7
:1026E00048F4879577956795B795F7959E3F08F0DD
:1026F000B0CF9395880F08F09927EE0F979587959F
:1027000008950E9495130C944B120E94441258F0A5
:102710000E943D1240F029F45F3F29F00C943412DE
:1027200051110C947F120C943A120E945C1268F3BF
:102730009923B1F3552391F3951B550BBB27AA277A
:1027400062177307840738F09F5F5F4F220F331FB4
:10275000441FAA1FA9F335D00E2E3AF0E0E832D07C
:1027600091505040E695001CCAF72BD0FE2F29D07F
:10277000660F771F881FBB1F261737074807AB0751
:10278000B0E809F0BB0B802DBF01FF2793585F4FC6
:102790003AF09E3F510578F00C9434120C947F125D
:1027A0005F3FE4F3983ED4F3869577956795B795A8
:1027B000F7959F5FC9F7880F911D9695879597F9B3
:1027C0000895E1E0660F771F881FBB1F621773072C
:1027D0008407BA0720F0621B730B840BBA0BEE1F41
:1027E00088F7E09508950E94FA136894B1110C944B
:1027F0007F1208950E94641288F09F5798F0B92FB5
:102800009927B751B0F0E1F0660F771F881F991F25
:102810001AF0BA95C9F714C0B13091F00E947E1237
:10282000B1E008950C947E12672F782F8827B85F47
:1028300039F0B93FCCF3869577956795B395D9F77D
:102840003EF490958095709561957F4F8F4F9F4F87
:1028500008950E94A01108F48FEF08959F930E949D
:102860003D140F9007FCEE5F0C9466140E94A011BB
:10287000880B990B08950C943A120E946412D8F3B5
:10288000E894E0E0BB279F57F0F02AED3FE049ECE9
:1028900006C0EE0FBB0F661F771F881F28F0B23AE5
:1028A00062077307840728F0B25A620B730B840B1C
:1028B000E3959A9572F7803830F49A95BB0F661FAE
:1028C000771F881FD2F790480C947C14EF93E0FF99
:1028D00007C0A2EA2AED3FE049EC5FEB0E942C130F
:1028E0000E944B120F90039401FC9058E8E6F0E030
:1028F0000C9488149F3F31F0915020F48795779580
:102900006795B795880F911D9695879597F90895C6
:102910009F938F937F936F93FF93EF939B01AC01F2
:102920000E94C411EF91FF910E949C142F913F913E
:102930004F915F910C94C411DF93CF931F930F932A
:10294000FF92EF92DF927B018C01689406C0DA2E31
:10295000EF010E94D711FE01E894A59125913591D0
:1029600045915591A6F3EF010E942C13FE019701AA
:10297000A801DA9469F7DF90EF90FF900F911F9113
:10298000CF91DF910895FB01DC018D9101908019B9
:102990000110D9F3990B0895FB01DC01415050401F
:1029A00030F08D910190801919F40020B9F7881B3F
:0829B000990B0895F894FFCF84
:1029B800286B6E4E30405000000000FF025F028C12
:1029C800026C03BD029B02AF020D0A006E616E002D
:1029D800696E66006F766600474554005043543A66
:1029E800005452473A00464C523A00524D503A0071
:0A29F80044333A005052503A0000F8
:00000001FF
